{
  "_format": "hh-sol-artifact-1",
  "contractName": "IdentityStaking",
  "sourceName": "contracts/IdentityStaking.sol",
  "abi": [
    {
      "inputs": [],
      "name": "AccessControlBadConfirmation",
      "type": "error"
    },
    {
      "inputs": [
        {
          "internalType": "address",
          "name": "account",
          "type": "address"
        },
        {
          "internalType": "bytes32",
          "name": "neededRole",
          "type": "bytes32"
        }
      ],
      "name": "AccessControlUnauthorizedAccount",
      "type": "error"
    },
    {
      "inputs": [],
      "name": "AddressCannotBeZero",
      "type": "error"
    },
    {
      "inputs": [
        {
          "internalType": "address",
          "name": "target",
          "type": "address"
        }
      ],
      "name": "AddressEmptyCode",
      "type": "error"
    },
    {
      "inputs": [],
      "name": "AmountMustBeGreaterThanZero",
      "type": "error"
    },
    {
      "inputs": [],
      "name": "AmountTooHigh",
      "type": "error"
    },
    {
      "inputs": [],
      "name": "CannotStakeOnSelf",
      "type": "error"
    },
    {
      "inputs": [
        {
          "internalType": "address",
          "name": "implementation",
          "type": "address"
        }
      ],
      "name": "ERC1967InvalidImplementation",
      "type": "error"
    },
    {
      "inputs": [],
      "name": "ERC1967NonPayable",
      "type": "error"
    },
    {
      "inputs": [],
      "name": "EnforcedPause",
      "type": "error"
    },
    {
      "inputs": [],
      "name": "ExpectedPause",
      "type": "error"
    },
    {
      "inputs": [],
      "name": "FailedInnerCall",
      "type": "error"
    },
    {
      "inputs": [],
      "name": "FailedTransfer",
      "type": "error"
    },
    {
      "inputs": [],
      "name": "FundsNotAvailableToRelease",
      "type": "error"
    },
    {
      "inputs": [],
      "name": "FundsNotAvailableToReleaseFromRound",
      "type": "error"
    },
    {
      "inputs": [],
      "name": "InvalidInitialization",
      "type": "error"
    },
    {
      "inputs": [],
      "name": "InvalidLockTime",
      "type": "error"
    },
    {
      "inputs": [],
      "name": "InvalidSlashPercent",
      "type": "error"
    },
    {
      "inputs": [],
      "name": "MinimumBurnRoundDurationNotMet",
      "type": "error"
    },
    {
      "inputs": [],
      "name": "NotInitializing",
      "type": "error"
    },
    {
      "inputs": [],
      "name": "RoundAlreadyBurned",
      "type": "error"
    },
    {
      "inputs": [],
      "name": "StakeIsLocked",
      "type": "error"
    },
    {
      "inputs": [],
      "name": "StakerStakeeMismatch",
      "type": "error"
    },
    {
      "inputs": [],
      "name": "UUPSUnauthorizedCallContext",
      "type": "error"
    },
    {
      "inputs": [
        {
          "internalType": "bytes32",
          "name": "slot",
          "type": "bytes32"
        }
      ],
      "name": "UUPSUnsupportedProxiableUUID",
      "type": "error"
    },
    {
      "anonymous": false,
      "inputs": [
        {
          "indexed": true,
          "internalType": "uint16",
          "name": "round",
          "type": "uint16"
        },
        {
          "indexed": false,
          "internalType": "uint88",
          "name": "amount",
          "type": "uint88"
        }
      ],
      "name": "Burn",
      "type": "event"
    },
    {
      "anonymous": false,
      "inputs": [
        {
          "indexed": true,
          "internalType": "address",
          "name": "staker",
          "type": "address"
        },
        {
          "indexed": true,
          "internalType": "address",
          "name": "stakee",
          "type": "address"
        },
        {
          "indexed": false,
          "internalType": "uint88",
          "name": "amount",
          "type": "uint88"
        },
        {
          "indexed": false,
          "internalType": "uint64",
          "name": "unlockTime",
          "type": "uint64"
        }
      ],
      "name": "CommunityStake",
      "type": "event"
    },
    {
      "anonymous": false,
      "inputs": [
        {
          "indexed": true,
          "internalType": "address",
          "name": "staker",
          "type": "address"
        },
        {
          "indexed": true,
          "internalType": "address",
          "name": "stakee",
          "type": "address"
        },
        {
          "indexed": false,
          "internalType": "uint88",
          "name": "amount",
          "type": "uint88"
        }
      ],
      "name": "CommunityStakeWithdrawn",
      "type": "event"
    },
    {
      "anonymous": false,
      "inputs": [
        {
          "indexed": false,
          "internalType": "uint64",
          "name": "version",
          "type": "uint64"
        }
      ],
      "name": "Initialized",
      "type": "event"
    },
    {
      "anonymous": false,
      "inputs": [
        {
          "indexed": false,
          "internalType": "address",
          "name": "account",
          "type": "address"
        }
      ],
      "name": "Paused",
      "type": "event"
    },
    {
      "anonymous": false,
      "inputs": [
        {
          "indexed": true,
          "internalType": "address",
          "name": "staker",
          "type": "address"
        },
        {
          "indexed": true,
          "internalType": "address",
          "name": "stakee",
          "type": "address"
        },
        {
          "indexed": false,
          "internalType": "uint88",
          "name": "amount",
          "type": "uint88"
        }
      ],
      "name": "Release",
      "type": "event"
    },
    {
      "anonymous": false,
      "inputs": [
        {
          "indexed": true,
          "internalType": "bytes32",
          "name": "role",
          "type": "bytes32"
        },
        {
          "indexed": true,
          "internalType": "bytes32",
          "name": "previousAdminRole",
          "type": "bytes32"
        },
        {
          "indexed": true,
          "internalType": "bytes32",
          "name": "newAdminRole",
          "type": "bytes32"
        }
      ],
      "name": "RoleAdminChanged",
      "type": "event"
    },
    {
      "anonymous": false,
      "inputs": [
        {
          "indexed": true,
          "internalType": "bytes32",
          "name": "role",
          "type": "bytes32"
        },
        {
          "indexed": true,
          "internalType": "address",
          "name": "account",
          "type": "address"
        },
        {
          "indexed": true,
          "internalType": "address",
          "name": "sender",
          "type": "address"
        }
      ],
      "name": "RoleGranted",
      "type": "event"
    },
    {
      "anonymous": false,
      "inputs": [
        {
          "indexed": true,
          "internalType": "bytes32",
          "name": "role",
          "type": "bytes32"
        },
        {
          "indexed": true,
          "internalType": "address",
          "name": "account",
          "type": "address"
        },
        {
          "indexed": true,
          "internalType": "address",
          "name": "sender",
          "type": "address"
        }
      ],
      "name": "RoleRevoked",
      "type": "event"
    },
    {
      "anonymous": false,
      "inputs": [
        {
          "indexed": true,
          "internalType": "address",
          "name": "staker",
          "type": "address"
        },
        {
          "indexed": false,
          "internalType": "uint88",
          "name": "amount",
          "type": "uint88"
        },
        {
          "indexed": false,
          "internalType": "uint64",
          "name": "unlockTime",
          "type": "uint64"
        }
      ],
      "name": "SelfStake",
      "type": "event"
    },
    {
      "anonymous": false,
      "inputs": [
        {
          "indexed": true,
          "internalType": "address",
          "name": "staker",
          "type": "address"
        },
        {
          "indexed": false,
          "internalType": "uint88",
          "name": "amount",
          "type": "uint88"
        }
      ],
      "name": "SelfStakeWithdrawn",
      "type": "event"
    },
    {
      "anonymous": false,
      "inputs": [
        {
          "indexed": true,
          "internalType": "address",
          "name": "staker",
          "type": "address"
        },
        {
          "indexed": true,
          "internalType": "address",
          "name": "stakee",
          "type": "address"
        },
        {
          "indexed": false,
          "internalType": "uint88",
          "name": "amount",
          "type": "uint88"
        },
        {
          "indexed": false,
          "internalType": "uint16",
          "name": "round",
          "type": "uint16"
        }
      ],
      "name": "Slash",
      "type": "event"
    },
    {
      "anonymous": false,
      "inputs": [
        {
          "indexed": false,
          "internalType": "address",
          "name": "account",
          "type": "address"
        }
      ],
      "name": "Unpaused",
      "type": "event"
    },
    {
      "anonymous": false,
      "inputs": [
        {
          "indexed": true,
          "internalType": "address",
          "name": "implementation",
          "type": "address"
        }
      ],
      "name": "Upgraded",
      "type": "event"
    },
    {
      "inputs": [],
      "name": "DEFAULT_ADMIN_ROLE",
      "outputs": [
        {
          "internalType": "bytes32",
          "name": "",
          "type": "bytes32"
        }
      ],
      "stateMutability": "view",
      "type": "function"
    },
    {
      "inputs": [],
      "name": "PAUSER_ROLE",
      "outputs": [
        {
          "internalType": "bytes32",
          "name": "",
          "type": "bytes32"
        }
      ],
      "stateMutability": "view",
      "type": "function"
    },
    {
      "inputs": [],
      "name": "RELEASER_ROLE",
      "outputs": [
        {
          "internalType": "bytes32",
          "name": "",
          "type": "bytes32"
        }
      ],
      "stateMutability": "view",
      "type": "function"
    },
    {
      "inputs": [],
      "name": "SLASHER_ROLE",
      "outputs": [
        {
          "internalType": "bytes32",
          "name": "",
          "type": "bytes32"
        }
      ],
      "stateMutability": "view",
      "type": "function"
    },
    {
      "inputs": [],
      "name": "UPGRADE_INTERFACE_VERSION",
      "outputs": [
        {
          "internalType": "string",
          "name": "",
          "type": "string"
        }
      ],
      "stateMutability": "view",
      "type": "function"
    },
    {
      "inputs": [],
      "name": "burnAddress",
      "outputs": [
        {
          "internalType": "address",
          "name": "",
          "type": "address"
        }
      ],
      "stateMutability": "view",
      "type": "function"
    },
    {
      "inputs": [],
      "name": "burnRoundMinimumDuration",
      "outputs": [
        {
          "internalType": "uint64",
          "name": "",
          "type": "uint64"
        }
      ],
      "stateMutability": "view",
      "type": "function"
    },
    {
      "inputs": [
        {
          "internalType": "address",
          "name": "stakee",
          "type": "address"
        },
        {
          "internalType": "uint88",
          "name": "amount",
          "type": "uint88"
        },
        {
          "internalType": "uint64",
          "name": "duration",
          "type": "uint64"
        }
      ],
      "name": "communityStake",
      "outputs": [],
      "stateMutability": "nonpayable",
      "type": "function"
    },
    {
      "inputs": [
        {
          "internalType": "address",
          "name": "",
          "type": "address"
        },
        {
          "internalType": "address",
          "name": "",
          "type": "address"
        }
      ],
      "name": "communityStakes",
      "outputs": [
        {
          "internalType": "uint64",
          "name": "unlockTime",
          "type": "uint64"
        },
        {
          "internalType": "uint88",
          "name": "amount",
          "type": "uint88"
        },
        {
          "internalType": "uint88",
          "name": "slashedAmount",
          "type": "uint88"
        },
        {
          "internalType": "uint16",
          "name": "slashedInRound",
          "type": "uint16"
        }
      ],
      "stateMutability": "view",
      "type": "function"
    },
    {
      "inputs": [],
      "name": "currentSlashRound",
      "outputs": [
        {
          "internalType": "uint16",
          "name": "",
          "type": "uint16"
        }
      ],
      "stateMutability": "view",
      "type": "function"
    },
    {
      "inputs": [
        {
          "internalType": "address",
          "name": "stakee",
          "type": "address"
        },
        {
          "internalType": "uint64",
          "name": "duration",
          "type": "uint64"
        }
      ],
      "name": "extendCommunityStake",
      "outputs": [],
      "stateMutability": "nonpayable",
      "type": "function"
    },
    {
      "inputs": [
        {
          "internalType": "uint64",
          "name": "duration",
          "type": "uint64"
        }
      ],
      "name": "extendSelfStake",
      "outputs": [],
      "stateMutability": "nonpayable",
      "type": "function"
    },
    {
      "inputs": [
        {
          "internalType": "bytes32",
          "name": "role",
          "type": "bytes32"
        }
      ],
      "name": "getRoleAdmin",
      "outputs": [
        {
          "internalType": "bytes32",
          "name": "",
          "type": "bytes32"
        }
      ],
      "stateMutability": "view",
      "type": "function"
    },
    {
      "inputs": [
        {
          "internalType": "bytes32",
          "name": "role",
          "type": "bytes32"
        },
        {
          "internalType": "address",
          "name": "account",
          "type": "address"
        }
      ],
      "name": "grantRole",
      "outputs": [],
      "stateMutability": "nonpayable",
      "type": "function"
    },
    {
      "inputs": [
        {
          "internalType": "bytes32",
          "name": "role",
          "type": "bytes32"
        },
        {
          "internalType": "address",
          "name": "account",
          "type": "address"
        }
      ],
      "name": "hasRole",
      "outputs": [
        {
          "internalType": "bool",
          "name": "",
          "type": "bool"
        }
      ],
      "stateMutability": "view",
      "type": "function"
    },
    {
      "inputs": [
        {
          "internalType": "address",
          "name": "tokenAddress",
          "type": "address"
        },
        {
          "internalType": "address",
          "name": "_burnAddress",
          "type": "address"
        },
        {
          "internalType": "address",
          "name": "initialAdmin",
          "type": "address"
        },
        {
          "internalType": "address[]",
          "name": "initialSlashers",
          "type": "address[]"
        },
        {
          "internalType": "address[]",
          "name": "initialReleasers",
          "type": "address[]"
        }
      ],
      "name": "initialize",
      "outputs": [],
      "stateMutability": "nonpayable",
      "type": "function"
    },
    {
      "inputs": [],
      "name": "lastBurnTimestamp",
      "outputs": [
        {
          "internalType": "uint256",
          "name": "",
          "type": "uint256"
        }
      ],
      "stateMutability": "view",
      "type": "function"
    },
    {
      "inputs": [],
      "name": "lockAndBurn",
      "outputs": [],
      "stateMutability": "nonpayable",
      "type": "function"
    },
    {
      "inputs": [],
      "name": "pause",
      "outputs": [],
      "stateMutability": "nonpayable",
      "type": "function"
    },
    {
      "inputs": [],
      "name": "paused",
      "outputs": [
        {
          "internalType": "bool",
          "name": "",
          "type": "bool"
        }
      ],
      "stateMutability": "view",
      "type": "function"
    },
    {
      "inputs": [],
      "name": "proxiableUUID",
      "outputs": [
        {
          "internalType": "bytes32",
          "name": "",
          "type": "bytes32"
        }
      ],
      "stateMutability": "view",
      "type": "function"
    },
    {
      "inputs": [
        {
          "internalType": "address",
          "name": "staker",
          "type": "address"
        },
        {
          "internalType": "address",
          "name": "stakee",
          "type": "address"
        },
        {
          "internalType": "uint88",
          "name": "amountToRelease",
          "type": "uint88"
        },
        {
          "internalType": "uint16",
          "name": "slashRound",
          "type": "uint16"
        }
      ],
      "name": "release",
      "outputs": [],
      "stateMutability": "nonpayable",
      "type": "function"
    },
    {
      "inputs": [
        {
          "internalType": "bytes32",
          "name": "role",
          "type": "bytes32"
        },
        {
          "internalType": "address",
          "name": "callerConfirmation",
          "type": "address"
        }
      ],
      "name": "renounceRole",
      "outputs": [],
      "stateMutability": "nonpayable",
      "type": "function"
    },
    {
      "inputs": [
        {
          "internalType": "bytes32",
          "name": "role",
          "type": "bytes32"
        },
        {
          "internalType": "address",
          "name": "account",
          "type": "address"
        }
      ],
      "name": "revokeRole",
      "outputs": [],
      "stateMutability": "nonpayable",
      "type": "function"
    },
    {
      "inputs": [
        {
          "internalType": "uint88",
          "name": "amount",
          "type": "uint88"
        },
        {
          "internalType": "uint64",
          "name": "duration",
          "type": "uint64"
        }
      ],
      "name": "selfStake",
      "outputs": [],
      "stateMutability": "nonpayable",
      "type": "function"
    },
    {
      "inputs": [
        {
          "internalType": "address",
          "name": "",
          "type": "address"
        }
      ],
      "name": "selfStakes",
      "outputs": [
        {
          "internalType": "uint64",
          "name": "unlockTime",
          "type": "uint64"
        },
        {
          "internalType": "uint88",
          "name": "amount",
          "type": "uint88"
        },
        {
          "internalType": "uint88",
          "name": "slashedAmount",
          "type": "uint88"
        },
        {
          "internalType": "uint16",
          "name": "slashedInRound",
          "type": "uint16"
        }
      ],
      "stateMutability": "view",
      "type": "function"
    },
    {
      "inputs": [
        {
          "internalType": "address[]",
          "name": "selfStakers",
          "type": "address[]"
        },
        {
          "internalType": "address[]",
          "name": "communityStakers",
          "type": "address[]"
        },
        {
          "internalType": "address[]",
          "name": "communityStakees",
          "type": "address[]"
        },
        {
          "internalType": "uint88",
          "name": "percent",
          "type": "uint88"
        }
      ],
      "name": "slash",
      "outputs": [],
      "stateMutability": "nonpayable",
      "type": "function"
    },
    {
      "inputs": [
        {
          "internalType": "bytes4",
          "name": "interfaceId",
          "type": "bytes4"
        }
      ],
      "name": "supportsInterface",
      "outputs": [
        {
          "internalType": "bool",
          "name": "",
          "type": "bool"
        }
      ],
      "stateMutability": "view",
      "type": "function"
    },
    {
      "inputs": [],
      "name": "token",
      "outputs": [
        {
          "internalType": "contract IERC20",
          "name": "",
          "type": "address"
        }
      ],
      "stateMutability": "view",
      "type": "function"
    },
    {
      "inputs": [
        {
          "internalType": "uint16",
          "name": "",
          "type": "uint16"
        }
      ],
      "name": "totalSlashed",
      "outputs": [
        {
          "internalType": "uint88",
          "name": "",
          "type": "uint88"
        }
      ],
      "stateMutability": "view",
      "type": "function"
    },
    {
      "inputs": [],
      "name": "unpause",
      "outputs": [],
      "stateMutability": "nonpayable",
      "type": "function"
    },
    {
      "inputs": [
        {
          "internalType": "address",
          "name": "newImplementation",
          "type": "address"
        },
        {
          "internalType": "bytes",
          "name": "data",
          "type": "bytes"
        }
      ],
      "name": "upgradeToAndCall",
      "outputs": [],
      "stateMutability": "payable",
      "type": "function"
    },
    {
      "inputs": [
        {
          "internalType": "address",
          "name": "",
          "type": "address"
        }
      ],
      "name": "userTotalStaked",
      "outputs": [
        {
          "internalType": "uint88",
          "name": "",
          "type": "uint88"
        }
      ],
      "stateMutability": "view",
      "type": "function"
    },
    {
      "inputs": [
        {
          "internalType": "address",
          "name": "stakee",
          "type": "address"
        },
        {
          "internalType": "uint88",
          "name": "amount",
          "type": "uint88"
        }
      ],
      "name": "withdrawCommunityStake",
      "outputs": [],
      "stateMutability": "nonpayable",
      "type": "function"
    },
    {
      "inputs": [
        {
          "internalType": "uint88",
          "name": "amount",
          "type": "uint88"
        }
      ],
      "name": "withdrawSelfStake",
      "outputs": [],
      "stateMutability": "nonpayable",
      "type": "function"
    }
  ],
  "bytecode": "0x60a06040523060805234801561001457600080fd5b506080516134e461003e600039600081816128b0015281816128d90152612a2201526134e46000f3fe6080604052600436106102035760003560e01c8063784f3b8611610118578063d1d098d2116100a0578063e67a97981161006f578063e67a979814610726578063e7a8cf4f14610746578063f032e64214610766578063f72f1e3814610786578063fc0c546a146107bc57600080fd5b8063d1d098d214610686578063d547741f146106c4578063dc7eae88146106e4578063e63ab1e91461070457600080fd5b8063a217fddf116100e7578063a217fddf146105b1578063ab761e32146105c6578063ac28af24146105f4578063ad3cb1cc14610628578063b07da9581461066657600080fd5b8063784f3b861461053c578063790fcf9f1461055c5780638456cb591461057c57806391d148541461059157600080fd5b8063414fa5111161019b5780635c975abb1161016a5780635c975abb146104105780636365950c1461043557806370d5ae05146104a1578063719de1ef146104d9578063733d48091461052757600080fd5b8063414fa511146103185780634f1ef286146103b45780635095af64146103c757806352d1902d146103fb57600080fd5b806336568abe116101d757806336568abe146102ad5780633d3d937d146102cd5780633f4ba83a146102e35780633ff8a1bb146102f857600080fd5b8062897a591461020857806301ffc9a71461022a578063248a9ca31461025f5780632f2ff15d1461028d575b600080fd5b34801561021457600080fd5b50610228610223366004612d58565b6107dc565b005b34801561023657600080fd5b5061024a610245366004612d73565b6109e0565b60405190151581526020015b60405180910390f35b34801561026b57600080fd5b5061027f61027a366004612d9d565b610a17565b604051908152602001610256565b34801561029957600080fd5b506102286102a8366004612dcd565b610a39565b3480156102b957600080fd5b506102286102c8366004612dcd565b610a5b565b3480156102d957600080fd5b5061027f60045481565b3480156102ef57600080fd5b50610228610a93565b34801561030457600080fd5b50610228610313366004612e44565b610abb565b34801561032457600080fd5b50610379610333366004612eee565b6001602052600090815260409020546001600160401b038116906001600160581b03600160401b8204811691600160981b81049091169061ffff600160f01b9091041684565b604080516001600160401b039590951685526001600160581b039384166020860152919092169083015261ffff166060820152608001610256565b6102286103c2366004612f1f565b611413565b3480156103d357600080fd5b5061027f7f12b42e8a160f6064dc959c6f251e3af0750ad213dbecf573b4710d67d6c28e3981565b34801561040757600080fd5b5061027f611432565b34801561041c57600080fd5b5060008051602061348f8339815191525460ff1661024a565b34801561044157600080fd5b50610379610450366004612fe0565b60026020908152600092835260408084209091529082529020546001600160401b038116906001600160581b03600160401b8204811691600160981b81049091169061ffff600160f01b9091041684565b3480156104ad57600080fd5b506005546104c1906001600160a01b031681565b6040516001600160a01b039091168152602001610256565b3480156104e557600080fd5b5061050f6104f4366004612eee565b6000602081905290815260409020546001600160581b031681565b6040516001600160581b039091168152602001610256565b34801561053357600080fd5b5061022861144f565b34801561054857600080fd5b50610228610557366004613021565b6115a8565b34801561056857600080fd5b5061022861057736600461303c565b6116e3565b34801561058857600080fd5b5061022861194a565b34801561059d57600080fd5b5061024a6105ac366004612dcd565b611972565b3480156105bd57600080fd5b5061027f600081565b3480156105d257600080fd5b506003546105e19061ffff1681565b60405161ffff9091168152602001610256565b34801561060057600080fd5b5061027f7f88f3509f0e42391f2d94ebfb2a37cbd0782b1b8f73715330017f4663290b811781565b34801561063457600080fd5b50610659604051806040016040528060058152602001640352e302e360dc1b81525081565b6040516102569190613101565b34801561067257600080fd5b50610228610681366004613134565b6119aa565b34801561069257600080fd5b506003546106ac906201000090046001600160401b031681565b6040516001600160401b039091168152602001610256565b3480156106d057600080fd5b506102286106df366004612dcd565b611cb7565b3480156106f057600080fd5b506102286106ff366004613189565b611cd3565b34801561071057600080fd5b5061027f60008051602061344f83398151915281565b34801561073257600080fd5b506102286107413660046131dd565b612078565b34801561075257600080fd5b50610228610761366004613207565b6121f2565b34801561077257600080fd5b50610228610781366004613223565b612469565b34801561079257600080fd5b5061050f6107a136600461324d565b6006602052600090815260409020546001600160581b031681565b3480156107c857600080fd5b506007546104c1906001600160a01b031681565b6107e46126b0565b33600090815260016020526040902054426001600160401b03909116111561081f5760405163856807e360e01b815260040160405180910390fd5b336000908152600160205260409020546001600160581b03600160401b909104811690821611156108635760405163fd7850ad60e01b815260040160405180910390fd5b3360009081526001602052604090208054829190600890610895908490600160401b90046001600160581b031661327e565b82546101009290920a6001600160581b03818102199093169183160217909155336000908152602081905260408120805485945090926108d79185911661327e565b92506101000a8154816001600160581b0302191690836001600160581b03160217905550336001600160a01b03167fdf840a32812a920a66fd3c346227e29e48aff7eaca366912af757fb28b7247e38260405161094391906001600160581b0391909116815260200190565b60405180910390a260075460405163a9059cbb60e01b81526001600160a01b039091169063a9059cbb9061097d903390859060040161329e565b6020604051808303816000875af115801561099c573d6000803e3d6000fd5b505050506040513d601f19601f820116820180604052508101906109c091906132c0565b6109dd5760405163bfa871c560e01b815260040160405180910390fd5b50565b60006001600160e01b03198216637965db0b60e01b1480610a1157506301ffc9a760e01b6001600160e01b03198316145b92915050565b600090815260008051602061346f833981519152602052604090206001015490565b610a4282610a17565b610a4b816126e3565b610a5583836126ed565b50505050565b6001600160a01b0381163314610a845760405163334bd91960e11b815260040160405180910390fd5b610a8e8282612799565b505050565b60008051602061344f833981519152610aab816126e3565b610ab3612815565b6109dd612845565b7f12b42e8a160f6064dc959c6f251e3af0750ad213dbecf573b4710d67d6c28e39610ae5816126e3565b610aed6126b0565b6064826001600160581b03161180610b0c57506001600160581b038216155b15610b2a57604051632a235f3d60e01b815260040160405180910390fd5b8685848114610b4c5760405163a17efd0360e01b815260040160405180910390fd5b60005b82811015610f555760008b8b83818110610b6b57610b6b6132e2565b9050602002016020810190610b809190612eee565b6001600160a01b03811660009081526001602052604081205491925090606490610bba90600160401b90046001600160581b0316896132f8565b610bc49190613323565b6001600160a01b038316600090815260016020526040902054909150600160f01b900461ffff1615801590610c2257506003546001600160a01b038316600090815260016020526040902054600160f01b900461ffff908116911614155b15610d9957600354610c3a9060019061ffff16613357565b6001600160a01b03831660009081526001602052604090205461ffff918216600160f01b90910490911603610d6b576001600160a01b0382166000908152600160208190526040822054600354600160981b9091046001600160581b0316926006929091610cac919061ffff16613357565b61ffff168152602081019190915260400160009081208054909190610cdb9084906001600160581b031661327e565b82546101009290920a6001600160581b038181021990931691831602179091556001600160a01b03841660009081526001602090815260408083205460035461ffff168452600690925282208054600160981b9092048416945092610d4291859116613372565b92506101000a8154816001600160581b0302191690836001600160581b03160217905550610d99565b6001600160a01b038216600090815260016020526040902080546affffffffffffffffffffff60981b191690555b60035461ffff1660009081526006602052604081208054839290610dc79084906001600160581b0316613372565b82546101009290920a6001600160581b038181021990931691831602179091556003546001600160a01b038516600090815260016020526040902080546001600160f01b031661ffff909216600160f01b02919091178082558493509091601391610e3b918591600160981b900416613372565b82546101009290920a6001600160581b038181021990931691831602179091556001600160a01b038416600090815260016020526040902080548493509091600891610e90918591600160401b90041661327e565b82546101009290920a6001600160581b038181021990931691831602179091556001600160a01b038416600090815260208190526040812080548594509092610edb9185911661327e565b82546101009290920a6001600160581b0381810219909316918316021790915560035460408051928516835261ffff90911660208301526001600160a01b038516925082917fe4a628b7ff23a2937efd9d26e66add5b40dd3076a7987056bbf84ca5b1d09936910160405180910390a35050600101610b4f565b5060005b81811015611406576000898983818110610f7557610f756132e2565b9050602002016020810190610f8a9190612eee565b90506000888884818110610fa057610fa06132e2565b9050602002016020810190610fb59190612eee565b6001600160a01b03838116600090815260026020908152604080832093851683529290529081205491925090606490610ffe90600160401b90046001600160581b03168a6132f8565b6110089190613323565b6001600160a01b03848116600090815260026020908152604080832093871683529290522054909150600160f01b900461ffff161580159061108057506003546001600160a01b03808516600090815260026020908152604080832093871683529290522054600160f01b900461ffff908116911614155b1561122d576003546110989060019061ffff16613357565b6001600160a01b0380851660009081526002602090815260408083209387168352929052205461ffff918216600160f01b909104909116036111f2576001600160a01b038381166000908152600260209081526040808320938616835292905290812054600354600160981b9091046001600160581b0316916006916111249060019061ffff16613357565b61ffff1681526020810191909152604001600090812080549091906111539084906001600160581b031661327e565b82546101009290920a6001600160581b038181021990931691831602179091556001600160a01b03858116600090815260026020908152604080832093881683529281528282205460035461ffff16835260069091529181208054600160981b909304841694509290916111c991859116613372565b92506101000a8154816001600160581b0302191690836001600160581b0316021790555061122d565b6001600160a01b03808416600090815260026020908152604080832093861683529290522080546affffffffffffffffffffff60981b191690555b60035461ffff166000908152600660205260408120805483929061125b9084906001600160581b0316613372565b82546101009290920a6001600160581b038181021990931691831602179091556003546001600160a01b03868116600090815260026020908152604080832093891683529290522080546001600160f01b031661ffff909216600160f01b029190911780825584935090916013916112dc918591600160981b900416613372565b82546101009290920a6001600160581b038181021990931691831602179091556001600160a01b0385811660009081526002602090815260408083209388168352929052208054849350909160089161133e918591600160401b90041661327e565b82546101009290920a6001600160581b038181021990931691831602179091556001600160a01b0385166000908152602081905260408120805485945090926113899185911661327e565b82546101009290920a6001600160581b0381810219909316918316021790915560035460408051928516835261ffff90911660208301526001600160a01b0385811693508616917fe4a628b7ff23a2937efd9d26e66add5b40dd3076a7987056bbf84ca5b1d09936910160405180910390a3505050600101610f59565b5050505050505050505050565b61141b6128a5565b6114248261294a565b61142e8282612955565b5050565b600061143c612a17565b5060008051602061342f83398151915290565b6114576126b0565b600354600454620100009091046001600160401b0316906114789042613392565b1015611497576040516302f0e3e760e41b815260040160405180910390fd5b60035460009060069082906114b29060019061ffff16613357565b61ffff90811682526020820192909252604001600020546003546001600160581b0390911692506114e69160019116613357565b6040516001600160581b038316815261ffff91909116907f06367c1bab68f0c9b021d69341825bcbd2483b3f9f80fdedb196a8f33e21179b9060200160405180910390a26003805461ffff1690600061153e836133a5565b91906101000a81548161ffff021916908361ffff16021790555050426004819055506000816001600160581b031611156109dd5760075460055460405163a9059cbb60e01b81526001600160a01b039283169263a9059cbb9261097d92911690859060040161329e565b6115b06126b0565b33600090815260016020526040812054600160401b90046001600160581b031690036115ef57604051635e85ae7360e01b815260040160405180910390fd5b60006115fb42836133c6565b905061160a42626ebe006133e6565b816001600160401b031610806116355750611629426303bfc4006133e6565b816001600160401b0316115b8061165b5750336000908152600160205260409020546001600160401b03908116908216105b156116795760405163abf20e8f60e01b815260040160405180910390fd5b336000818152600160209081526040808320805467ffffffffffffffff19166001600160401b0387169081179091558151938452918301919091527f6600db42842224c3c3595c34733f34ac160702ac47d49fb5f7bdd28fa964b728910160405180910390a25050565b7ff0c57e16840df040f15088dc2f81fe391c3923bec73e23a9662efc9c229c6a008054600160401b810460ff1615906001600160401b03166000811580156117285750825b90506000826001600160401b031660011480156117445750303b155b905081158015611752575080155b156117705760405163f92ee8a960e01b815260040160405180910390fd5b845467ffffffffffffffff19166001178555831561179a57845460ff60401b1916600160401b1785555b6001600160a01b038c166117c1576040516303988b8160e61b815260040160405180910390fd5b6117c9612a60565b6117d1612a68565b6117dc60008b6126ed565b506117f560008051602061344f8339815191528b6126ed565b5060005b8881101561185a576118517f12b42e8a160f6064dc959c6f251e3af0750ad213dbecf573b4710d67d6c28e398b8b84818110611837576118376132e2565b905060200201602081019061184c9190612eee565b6126ed565b506001016117f9565b5060005b868110156118a55761189c7f88f3509f0e42391f2d94ebfb2a37cbd0782b1b8f73715330017f4663290b8117898984818110611837576118376132e2565b5060010161185e565b50600780546001600160a01b03808f166001600160a01b03199283161790925560058054928e1692909116919091179055600380546476a700000169ffffffffffffffffffff1990911617905542600455831561193c57845460ff60401b19168555604051600181527fc7f505b2f371ae2175ee4913f4499e1f2633a7b5936321eed1cdaeb6115181d29060200160405180910390a15b505050505050505050505050565b60008051602061344f833981519152611962816126e3565b61196a6126b0565b6109dd612a78565b600091825260008051602061346f833981519152602090815260408084206001600160a01b0393909316845291905290205460ff1690565b6119b26126b0565b336001600160a01b038416036119db57604051635c39972d60e01b815260040160405180910390fd5b6001600160a01b038316611a02576040516303988b8160e61b815260040160405180910390fd5b816001600160581b0316600003611a2c57604051635e85ae7360e01b815260040160405180910390fd5b6000611a3842836133c6565b9050611a4742626ebe006133e6565b816001600160401b03161080611a725750611a66426303bfc4006133e6565b816001600160401b0316115b80611aac57503360009081526002602090815260408083206001600160a01b03881684529091529020546001600160401b03908116908216105b15611aca5760405163abf20e8f60e01b815260040160405180910390fd5b3360009081526002602090815260408083206001600160a01b038816845290915290208054849190600890611b10908490600160401b90046001600160581b0316613372565b82546101009290920a6001600160581b038181021990931691831602179091553360008181526002602090815260408083206001600160a01b038b1684528252808320805467ffffffffffffffff19166001600160401b03891617905592825281905290812080548794509092611b8991859116613372565b92506101000a8154816001600160581b0302191690836001600160581b03160217905550836001600160a01b0316336001600160a01b03167fb65e180628043209b010b8f98fd0b36d27d6cf60b5764a937dc4fce9c8a215e38584604051611c0f9291906001600160581b039290921682526001600160401b0316602082015260400190565b60405180910390a36007546040516323b872dd60e01b81523360048201523060248201526001600160581b03851660448201526001600160a01b03909116906323b872dd906064016020604051808303816000875af1158015611c76573d6000803e3d6000fd5b505050506040513d601f19601f82011682018060405250810190611c9a91906132c0565b610a555760405163bfa871c560e01b815260040160405180910390fd5b611cc082610a17565b611cc9816126e3565b610a558383612799565b7f88f3509f0e42391f2d94ebfb2a37cbd0782b1b8f73715330017f4663290b8117611cfd816126e3565b611d056126b0565b600354611d189060019061ffff16613357565b61ffff168261ffff161015611d405760405163162af38760e01b815260040160405180910390fd5b836001600160a01b0316856001600160a01b031603611ea5576001600160a01b0385166000908152600160205260409020546001600160581b03600160981b90910481169084161115611da6576040516356c8f43760e11b815260040160405180910390fd5b6001600160a01b03851660009081526001602052604090205461ffff838116600160f01b9092041614611dec57604051631eb5af2360e11b815260040160405180910390fd5b6001600160a01b03851660009081526001602052604090208054849190601390611e27908490600160981b90046001600160581b031661327e565b82546101009290920a6001600160581b038181021990931691831602179091556001600160a01b038716600090815260016020526040902080548693509091600891611e7c918591600160401b900416613372565b92506101000a8154816001600160581b0302191690836001600160581b03160217905550612021565b6001600160a01b038086166000908152600260209081526040808320938816835292905220546001600160581b03600160981b90910481169084161115611eff576040516356c8f43760e11b815260040160405180910390fd5b6001600160a01b0385811660009081526002602090815260408083209388168352929052205461ffff838116600160f01b9092041614611f5257604051631eb5af2360e11b815260040160405180910390fd5b6001600160a01b0385811660009081526002602090815260408083209388168352929052208054849190601390611f9a908490600160981b90046001600160581b031661327e565b82546101009290920a6001600160581b038181021990931691831602179091556001600160a01b038781166000908152600260209081526040808320938a1683529290522080548693509091600891611ffc918591600160401b900416613372565b92506101000a8154816001600160581b0302191690836001600160581b031602179055505b61ffff82166000908152600660205260408120805485929061204d9084906001600160581b031661327e565b92506101000a8154816001600160581b0302191690836001600160581b031602179055505050505050565b6120806126b0565b3360009081526002602090815260408083206001600160a01b0386168452909152812054600160401b90046001600160581b031690036120d357604051635e85ae7360e01b815260040160405180910390fd5b60006120df42836133c6565b90506120ee42626ebe006133e6565b816001600160401b03161080612119575061210d426303bfc4006133e6565b816001600160401b0316115b8061215357503360009081526002602090815260408083206001600160a01b03871684529091529020546001600160401b03908116908216105b156121715760405163abf20e8f60e01b815260040160405180910390fd5b3360008181526002602090815260408083206001600160a01b038816808552908352818420805467ffffffffffffffff19166001600160401b0388169081179091558251948552928401929092529092917fb65e180628043209b010b8f98fd0b36d27d6cf60b5764a937dc4fce9c8a215e3910160405180910390a3505050565b6121fa6126b0565b816001600160581b031660000361222457604051635e85ae7360e01b815260040160405180910390fd5b600061223042836133c6565b905061223f42626ebe006133e6565b816001600160401b0316108061226a575061225e426303bfc4006133e6565b816001600160401b0316115b806122905750336000908152600160205260409020546001600160401b03908116908216105b156122ae5760405163abf20e8f60e01b815260040160405180910390fd5b33600090815260016020526040902080548491906008906122e0908490600160401b90046001600160581b0316613372565b82546101009290920a6001600160581b03818102199093169183160217909155336000908152600160209081526040808320805467ffffffffffffffff19166001600160401b0388161790559082905281208054879450909261234591859116613372565b92506101000a8154816001600160581b0302191690836001600160581b03160217905550336001600160a01b03167f6600db42842224c3c3595c34733f34ac160702ac47d49fb5f7bdd28fa964b72884836040516123c19291906001600160581b039290921682526001600160401b0316602082015260400190565b60405180910390a26007546040516323b872dd60e01b81523360048201523060248201526001600160581b03851660448201526001600160a01b03909116906323b872dd906064016020604051808303816000875af1158015612428573d6000803e3d6000fd5b505050506040513d601f19601f8201168201806040525081019061244c91906132c0565b610a8e5760405163bfa871c560e01b815260040160405180910390fd5b6124716126b0565b3360009081526002602090815260408083206001600160a01b0386168452909152902054426001600160401b0390911611156124c05760405163856807e360e01b815260040160405180910390fd5b3360009081526002602090815260408083206001600160a01b03861684529091529020546001600160581b03600160401b909104811690821611156125185760405163fd7850ad60e01b815260040160405180910390fd5b3360009081526002602090815260408083206001600160a01b03861684529091529020805482919060089061255e908490600160401b90046001600160581b031661327e565b82546101009290920a6001600160581b03818102199093169183160217909155336000908152602081905260408120805485945090926125a09185911661327e565b92506101000a8154816001600160581b0302191690836001600160581b03160217905550816001600160a01b0316336001600160a01b03167f2caac2d31fe8eb8221533ae01b6f8a86f77673624d0a37836993b272f3846a0e8360405161261691906001600160581b0391909116815260200190565b60405180910390a360075460405163a9059cbb60e01b81526001600160a01b039091169063a9059cbb90612650903390859060040161329e565b6020604051808303816000875af115801561266f573d6000803e3d6000fd5b505050506040513d601f19601f8201168201806040525081019061269391906132c0565b61142e5760405163bfa871c560e01b815260040160405180910390fd5b60008051602061348f8339815191525460ff16156126e15760405163d93c066560e01b815260040160405180910390fd5b565b6109dd8133612ac1565b600060008051602061346f8339815191526127088484611972565b612788576000848152602082815260408083206001600160a01b03871684529091529020805460ff1916600117905561273e3390565b6001600160a01b0316836001600160a01b0316857f2f8788117e7eff1d82e926ec794901d17c78024a50270940304540a733656f0d60405160405180910390a46001915050610a11565b6000915050610a11565b5092915050565b600060008051602061346f8339815191526127b48484611972565b15612788576000848152602082815260408083206001600160a01b0387168085529252808320805460ff1916905551339287917ff6391f5c32d9c69d2a47ea670b442974b53935d1edc7fd64eb21e047a839171b9190a46001915050610a11565b60008051602061348f8339815191525460ff166126e157604051638dfc202b60e01b815260040160405180910390fd5b61284d612815565b60008051602061348f833981519152805460ff191681557f5db9ee0a495bf2e6ff9c91a7834c1ba4fdd244a5e8aa4e537bd38aeae4b073aa335b6040516001600160a01b03909116815260200160405180910390a150565b306001600160a01b037f000000000000000000000000000000000000000000000000000000000000000016148061292c57507f00000000000000000000000000000000000000000000000000000000000000006001600160a01b031661292060008051602061342f833981519152546001600160a01b031690565b6001600160a01b031614155b156126e15760405163703e46dd60e11b815260040160405180910390fd5b600061142e816126e3565b816001600160a01b03166352d1902d6040518163ffffffff1660e01b8152600401602060405180830381865afa9250505080156129af575060408051601f3d908101601f191682019092526129ac918101906133f9565b60015b6129dc57604051634c9c8ce360e01b81526001600160a01b03831660048201526024015b60405180910390fd5b60008051602061342f8339815191528114612a0d57604051632a87526960e21b8152600481018290526024016129d3565b610a8e8383612afa565b306001600160a01b037f000000000000000000000000000000000000000000000000000000000000000016146126e15760405163703e46dd60e11b815260040160405180910390fd5b6126e1612b50565b612a70612b50565b6126e1612b99565b612a806126b0565b60008051602061348f833981519152805460ff191660011781557f62e78cea01bee320cd4e420270b5ea74000d11b0c9f74754ebdbfc544b05a25833612887565b612acb8282611972565b61142e5760405163e2517d3f60e01b81526001600160a01b0382166004820152602481018390526044016129d3565b612b0382612bba565b6040516001600160a01b038316907fbc7cd75a20ee27fd9adebab32041f755214dbc6bffa90cc0225b39da2e5c2d3b90600090a2805115612b4857610a8e8282612c1f565b61142e612c95565b7ff0c57e16840df040f15088dc2f81fe391c3923bec73e23a9662efc9c229c6a0054600160401b900460ff166126e157604051631afcd79f60e31b815260040160405180910390fd5b612ba1612b50565b60008051602061348f833981519152805460ff19169055565b806001600160a01b03163b600003612bf057604051634c9c8ce360e01b81526001600160a01b03821660048201526024016129d3565b60008051602061342f83398151915280546001600160a01b0319166001600160a01b0392909216919091179055565b6060600080846001600160a01b031684604051612c3c9190613412565b600060405180830381855af49150503d8060008114612c77576040519150601f19603f3d011682016040523d82523d6000602084013e612c7c565b606091505b5091509150612c8c858383612cb4565b95945050505050565b34156126e15760405163b398979f60e01b815260040160405180910390fd5b606082612cc957612cc482612d13565b612d0c565b8151158015612ce057506001600160a01b0384163b155b15612d0957604051639996b31560e01b81526001600160a01b03851660048201526024016129d3565b50805b9392505050565b805115612d235780518082602001fd5b604051630a12f52160e11b815260040160405180910390fd5b80356001600160581b0381168114612d5357600080fd5b919050565b600060208284031215612d6a57600080fd5b612d0c82612d3c565b600060208284031215612d8557600080fd5b81356001600160e01b031981168114612d0c57600080fd5b600060208284031215612daf57600080fd5b5035919050565b80356001600160a01b0381168114612d5357600080fd5b60008060408385031215612de057600080fd5b82359150612df060208401612db6565b90509250929050565b60008083601f840112612e0b57600080fd5b5081356001600160401b03811115612e2257600080fd5b6020830191508360208260051b8501011115612e3d57600080fd5b9250929050565b60008060008060008060006080888a031215612e5f57600080fd5b87356001600160401b0380821115612e7657600080fd5b612e828b838c01612df9565b909950975060208a0135915080821115612e9b57600080fd5b612ea78b838c01612df9565b909750955060408a0135915080821115612ec057600080fd5b50612ecd8a828b01612df9565b9094509250612ee0905060608901612d3c565b905092959891949750929550565b600060208284031215612f0057600080fd5b612d0c82612db6565b634e487b7160e01b600052604160045260246000fd5b60008060408385031215612f3257600080fd5b612f3b83612db6565b915060208301356001600160401b0380821115612f5757600080fd5b818501915085601f830112612f6b57600080fd5b813581811115612f7d57612f7d612f09565b604051601f8201601f19908116603f01168101908382118183101715612fa557612fa5612f09565b81604052828152886020848701011115612fbe57600080fd5b8260208601602083013760006020848301015280955050505050509250929050565b60008060408385031215612ff357600080fd5b612ffc83612db6565b9150612df060208401612db6565b80356001600160401b0381168114612d5357600080fd5b60006020828403121561303357600080fd5b612d0c8261300a565b600080600080600080600060a0888a03121561305757600080fd5b61306088612db6565b965061306e60208901612db6565b955061307c60408901612db6565b945060608801356001600160401b038082111561309857600080fd5b6130a48b838c01612df9565b909650945060808a01359150808211156130bd57600080fd5b506130ca8a828b01612df9565b989b979a50959850939692959293505050565b60005b838110156130f85781810151838201526020016130e0565b50506000910152565b60208152600082518060208401526131208160408501602087016130dd565b601f01601f19169190910160400192915050565b60008060006060848603121561314957600080fd5b61315284612db6565b925061316060208501612d3c565b915061316e6040850161300a565b90509250925092565b803561ffff81168114612d5357600080fd5b6000806000806080858703121561319f57600080fd5b6131a885612db6565b93506131b660208601612db6565b92506131c460408601612d3c565b91506131d260608601613177565b905092959194509250565b600080604083850312156131f057600080fd5b6131f983612db6565b9150612df06020840161300a565b6000806040838503121561321a57600080fd5b6131f983612d3c565b6000806040838503121561323657600080fd5b61323f83612db6565b9150612df060208401612d3c565b60006020828403121561325f57600080fd5b612d0c82613177565b634e487b7160e01b600052601160045260246000fd5b6001600160581b0382811682821603908082111561279257612792613268565b6001600160a01b039290921682526001600160581b0316602082015260400190565b6000602082840312156132d257600080fd5b81518015158114612d0c57600080fd5b634e487b7160e01b600052603260045260246000fd5b6001600160581b0381811683821602808216919082811461331b5761331b613268565b505092915050565b60006001600160581b038084168061334b57634e487b7160e01b600052601260045260246000fd5b92169190910492915050565b61ffff82811682821603908082111561279257612792613268565b6001600160581b0381811683821601908082111561279257612792613268565b81810381811115610a1157610a11613268565b600061ffff8083168181036133bc576133bc613268565b6001019392505050565b6001600160401b0381811683821601908082111561279257612792613268565b80820180821115610a1157610a11613268565b60006020828403121561340b57600080fd5b5051919050565b600082516134248184602087016130dd565b919091019291505056fe360894a13ba1a3210667c828492db98dca3e2076cc3735a920a3ca505d382bbc65d7a28e3265b37a6474929f336521b332c1681b933f6cb9f3376673440d862a02dd7bc7dec4dceedda775e58dd541e08a116c6c53815c0bd028192f7b626800cd5ed15c6e187e77e9aee88184c21f4f2182ab5827cb3b7e07fbedcd63f03300a2646970667358221220379b5a20b396e50b3a0c0be2f6e211792f7dded31e28bee457bdf24efea5492464736f6c63430008170033",
  "linkReferences": {},
  "deployedLinkReferences": {}
}