{
  "_format": "hh-sol-artifact-1",
  "contractName": "IdentityStaking",
  "sourceName": "contracts/IdentityStaking.sol",
  "abi": [
    {
      "inputs": [],
      "name": "AccessControlBadConfirmation",
      "type": "error"
    },
    {
      "inputs": [
        {
          "internalType": "address",
          "name": "account",
          "type": "address"
        },
        {
          "internalType": "bytes32",
          "name": "neededRole",
          "type": "bytes32"
        }
      ],
      "name": "AccessControlUnauthorizedAccount",
      "type": "error"
    },
    {
      "inputs": [],
      "name": "AddressCannotBeZero",
      "type": "error"
    },
    {
      "inputs": [
        {
          "internalType": "address",
          "name": "target",
          "type": "address"
        }
      ],
      "name": "AddressEmptyCode",
      "type": "error"
    },
    {
      "inputs": [],
      "name": "AmountMustBeGreaterThanZero",
      "type": "error"
    },
    {
      "inputs": [],
      "name": "AmountTooHigh",
      "type": "error"
    },
    {
      "inputs": [],
      "name": "CannotStakeOnSelf",
      "type": "error"
    },
    {
      "inputs": [
        {
          "internalType": "address",
          "name": "implementation",
          "type": "address"
        }
      ],
      "name": "ERC1967InvalidImplementation",
      "type": "error"
    },
    {
      "inputs": [],
      "name": "ERC1967NonPayable",
      "type": "error"
    },
    {
      "inputs": [],
      "name": "EnforcedPause",
      "type": "error"
    },
    {
      "inputs": [],
      "name": "ExpectedPause",
      "type": "error"
    },
    {
      "inputs": [],
      "name": "FailedInnerCall",
      "type": "error"
    },
    {
      "inputs": [],
      "name": "FailedTransfer",
      "type": "error"
    },
    {
      "inputs": [],
      "name": "FundsNotAvailableToRelease",
      "type": "error"
    },
    {
      "inputs": [],
      "name": "FundsNotAvailableToReleaseFromRound",
      "type": "error"
    },
    {
      "inputs": [],
      "name": "InvalidInitialization",
      "type": "error"
    },
    {
      "inputs": [],
      "name": "InvalidLockTime",
      "type": "error"
    },
    {
      "inputs": [],
      "name": "InvalidSlashPercent",
      "type": "error"
    },
    {
      "inputs": [],
      "name": "MinimumBurnRoundDurationNotMet",
      "type": "error"
    },
    {
      "inputs": [],
      "name": "NotInitializing",
      "type": "error"
    },
    {
      "inputs": [],
      "name": "RoundAlreadyBurned",
      "type": "error"
    },
    {
      "inputs": [],
      "name": "StakeIsLocked",
      "type": "error"
    },
    {
      "inputs": [],
      "name": "StakerStakeeMismatch",
      "type": "error"
    },
    {
      "inputs": [],
      "name": "UUPSUnauthorizedCallContext",
      "type": "error"
    },
    {
      "inputs": [
        {
          "internalType": "bytes32",
          "name": "slot",
          "type": "bytes32"
        }
      ],
      "name": "UUPSUnsupportedProxiableUUID",
      "type": "error"
    },
    {
      "anonymous": false,
      "inputs": [
        {
          "indexed": true,
          "internalType": "uint16",
          "name": "round",
          "type": "uint16"
        },
        {
          "indexed": false,
          "internalType": "uint88",
          "name": "amount",
          "type": "uint88"
        }
      ],
      "name": "Burn",
      "type": "event"
    },
    {
      "anonymous": false,
      "inputs": [
        {
          "indexed": true,
          "internalType": "address",
          "name": "staker",
          "type": "address"
        },
        {
          "indexed": true,
          "internalType": "address",
          "name": "stakee",
          "type": "address"
        },
        {
          "indexed": false,
          "internalType": "uint88",
          "name": "amount",
          "type": "uint88"
        },
        {
          "indexed": false,
          "internalType": "uint64",
          "name": "unlockTime",
          "type": "uint64"
        }
      ],
      "name": "CommunityStake",
      "type": "event"
    },
    {
      "anonymous": false,
      "inputs": [
        {
          "indexed": true,
          "internalType": "address",
          "name": "staker",
          "type": "address"
        },
        {
          "indexed": true,
          "internalType": "address",
          "name": "stakee",
          "type": "address"
        },
        {
          "indexed": false,
          "internalType": "uint88",
          "name": "amount",
          "type": "uint88"
        }
      ],
      "name": "CommunityStakeWithdrawn",
      "type": "event"
    },
    {
      "anonymous": false,
      "inputs": [
        {
          "indexed": false,
          "internalType": "uint64",
          "name": "version",
          "type": "uint64"
        }
      ],
      "name": "Initialized",
      "type": "event"
    },
    {
      "anonymous": false,
      "inputs": [
        {
          "indexed": false,
          "internalType": "address",
          "name": "account",
          "type": "address"
        }
      ],
      "name": "Paused",
      "type": "event"
    },
    {
      "anonymous": false,
      "inputs": [
        {
          "indexed": true,
          "internalType": "address",
          "name": "staker",
          "type": "address"
        },
        {
          "indexed": true,
          "internalType": "address",
          "name": "stakee",
          "type": "address"
        },
        {
          "indexed": false,
          "internalType": "uint88",
          "name": "amount",
          "type": "uint88"
        }
      ],
      "name": "Release",
      "type": "event"
    },
    {
      "anonymous": false,
      "inputs": [
        {
          "indexed": true,
          "internalType": "bytes32",
          "name": "role",
          "type": "bytes32"
        },
        {
          "indexed": true,
          "internalType": "bytes32",
          "name": "previousAdminRole",
          "type": "bytes32"
        },
        {
          "indexed": true,
          "internalType": "bytes32",
          "name": "newAdminRole",
          "type": "bytes32"
        }
      ],
      "name": "RoleAdminChanged",
      "type": "event"
    },
    {
      "anonymous": false,
      "inputs": [
        {
          "indexed": true,
          "internalType": "bytes32",
          "name": "role",
          "type": "bytes32"
        },
        {
          "indexed": true,
          "internalType": "address",
          "name": "account",
          "type": "address"
        },
        {
          "indexed": true,
          "internalType": "address",
          "name": "sender",
          "type": "address"
        }
      ],
      "name": "RoleGranted",
      "type": "event"
    },
    {
      "anonymous": false,
      "inputs": [
        {
          "indexed": true,
          "internalType": "bytes32",
          "name": "role",
          "type": "bytes32"
        },
        {
          "indexed": true,
          "internalType": "address",
          "name": "account",
          "type": "address"
        },
        {
          "indexed": true,
          "internalType": "address",
          "name": "sender",
          "type": "address"
        }
      ],
      "name": "RoleRevoked",
      "type": "event"
    },
    {
      "anonymous": false,
      "inputs": [
        {
          "indexed": true,
          "internalType": "address",
          "name": "staker",
          "type": "address"
        },
        {
          "indexed": false,
          "internalType": "uint88",
          "name": "amount",
          "type": "uint88"
        },
        {
          "indexed": false,
          "internalType": "uint64",
          "name": "unlockTime",
          "type": "uint64"
        }
      ],
      "name": "SelfStake",
      "type": "event"
    },
    {
      "anonymous": false,
      "inputs": [
        {
          "indexed": true,
          "internalType": "address",
          "name": "staker",
          "type": "address"
        },
        {
          "indexed": false,
          "internalType": "uint88",
          "name": "amount",
          "type": "uint88"
        }
      ],
      "name": "SelfStakeWithdrawn",
      "type": "event"
    },
    {
      "anonymous": false,
      "inputs": [
        {
          "indexed": true,
          "internalType": "address",
          "name": "staker",
          "type": "address"
        },
        {
          "indexed": true,
          "internalType": "address",
          "name": "stakee",
          "type": "address"
        },
        {
          "indexed": false,
          "internalType": "uint88",
          "name": "amount",
          "type": "uint88"
        },
        {
          "indexed": false,
          "internalType": "uint16",
          "name": "round",
          "type": "uint16"
        }
      ],
      "name": "Slash",
      "type": "event"
    },
    {
      "anonymous": false,
      "inputs": [
        {
          "indexed": false,
          "internalType": "address",
          "name": "account",
          "type": "address"
        }
      ],
      "name": "Unpaused",
      "type": "event"
    },
    {
      "anonymous": false,
      "inputs": [
        {
          "indexed": true,
          "internalType": "address",
          "name": "implementation",
          "type": "address"
        }
      ],
      "name": "Upgraded",
      "type": "event"
    },
    {
      "inputs": [],
      "name": "DEFAULT_ADMIN_ROLE",
      "outputs": [
        {
          "internalType": "bytes32",
          "name": "",
          "type": "bytes32"
        }
      ],
      "stateMutability": "view",
      "type": "function"
    },
    {
      "inputs": [],
      "name": "PAUSER_ROLE",
      "outputs": [
        {
          "internalType": "bytes32",
          "name": "",
          "type": "bytes32"
        }
      ],
      "stateMutability": "view",
      "type": "function"
    },
    {
      "inputs": [],
      "name": "RELEASER_ROLE",
      "outputs": [
        {
          "internalType": "bytes32",
          "name": "",
          "type": "bytes32"
        }
      ],
      "stateMutability": "view",
      "type": "function"
    },
    {
      "inputs": [],
      "name": "SLASHER_ROLE",
      "outputs": [
        {
          "internalType": "bytes32",
          "name": "",
          "type": "bytes32"
        }
      ],
      "stateMutability": "view",
      "type": "function"
    },
    {
      "inputs": [],
      "name": "UPGRADE_INTERFACE_VERSION",
      "outputs": [
        {
          "internalType": "string",
          "name": "",
          "type": "string"
        }
      ],
      "stateMutability": "view",
      "type": "function"
    },
    {
      "inputs": [],
      "name": "burnAddress",
      "outputs": [
        {
          "internalType": "address",
          "name": "",
          "type": "address"
        }
      ],
      "stateMutability": "view",
      "type": "function"
    },
    {
      "inputs": [],
      "name": "burnRoundMinimumDuration",
      "outputs": [
        {
          "internalType": "uint64",
          "name": "",
          "type": "uint64"
        }
      ],
      "stateMutability": "view",
      "type": "function"
    },
    {
      "inputs": [
        {
          "internalType": "address",
          "name": "stakee",
          "type": "address"
        },
        {
          "internalType": "uint88",
          "name": "amount",
          "type": "uint88"
        },
        {
          "internalType": "uint64",
          "name": "duration",
          "type": "uint64"
        }
      ],
      "name": "communityStake",
      "outputs": [],
      "stateMutability": "nonpayable",
      "type": "function"
    },
    {
      "inputs": [
        {
          "internalType": "address",
          "name": "",
          "type": "address"
        },
        {
          "internalType": "address",
          "name": "",
          "type": "address"
        }
      ],
      "name": "communityStakes",
      "outputs": [
        {
          "internalType": "uint64",
          "name": "unlockTime",
          "type": "uint64"
        },
        {
          "internalType": "uint88",
          "name": "amount",
          "type": "uint88"
        },
        {
          "internalType": "uint88",
          "name": "slashedAmount",
          "type": "uint88"
        },
        {
          "internalType": "uint16",
          "name": "slashedInRound",
          "type": "uint16"
        }
      ],
      "stateMutability": "view",
      "type": "function"
    },
    {
      "inputs": [],
      "name": "currentSlashRound",
      "outputs": [
        {
          "internalType": "uint16",
          "name": "",
          "type": "uint16"
        }
      ],
      "stateMutability": "view",
      "type": "function"
    },
    {
      "inputs": [
        {
          "internalType": "address",
          "name": "stakee",
          "type": "address"
        },
        {
          "internalType": "uint64",
          "name": "duration",
          "type": "uint64"
        }
      ],
      "name": "extendCommunityStake",
      "outputs": [],
      "stateMutability": "nonpayable",
      "type": "function"
    },
    {
      "inputs": [
        {
          "internalType": "uint64",
          "name": "duration",
          "type": "uint64"
        }
      ],
      "name": "extendSelfStake",
      "outputs": [],
      "stateMutability": "nonpayable",
      "type": "function"
    },
    {
      "inputs": [
        {
          "internalType": "bytes32",
          "name": "role",
          "type": "bytes32"
        }
      ],
      "name": "getRoleAdmin",
      "outputs": [
        {
          "internalType": "bytes32",
          "name": "",
          "type": "bytes32"
        }
      ],
      "stateMutability": "view",
      "type": "function"
    },
    {
      "inputs": [
        {
          "internalType": "bytes32",
          "name": "role",
          "type": "bytes32"
        },
        {
          "internalType": "address",
          "name": "account",
          "type": "address"
        }
      ],
      "name": "grantRole",
      "outputs": [],
      "stateMutability": "nonpayable",
      "type": "function"
    },
    {
      "inputs": [
        {
          "internalType": "bytes32",
          "name": "role",
          "type": "bytes32"
        },
        {
          "internalType": "address",
          "name": "account",
          "type": "address"
        }
      ],
      "name": "hasRole",
      "outputs": [
        {
          "internalType": "bool",
          "name": "",
          "type": "bool"
        }
      ],
      "stateMutability": "view",
      "type": "function"
    },
    {
      "inputs": [
        {
          "internalType": "address",
          "name": "tokenAddress",
          "type": "address"
        },
        {
          "internalType": "address",
          "name": "_burnAddress",
          "type": "address"
        },
        {
          "internalType": "address",
          "name": "initialAdmin",
          "type": "address"
        },
        {
          "internalType": "address[]",
          "name": "initialSlashers",
          "type": "address[]"
        },
        {
          "internalType": "address[]",
          "name": "initialReleasers",
          "type": "address[]"
        }
      ],
      "name": "initialize",
      "outputs": [],
      "stateMutability": "nonpayable",
      "type": "function"
    },
    {
      "inputs": [],
      "name": "lastBurnTimestamp",
      "outputs": [
        {
          "internalType": "uint256",
          "name": "",
          "type": "uint256"
        }
      ],
      "stateMutability": "view",
      "type": "function"
    },
    {
      "inputs": [],
      "name": "lockAndBurn",
      "outputs": [],
      "stateMutability": "nonpayable",
      "type": "function"
    },
    {
      "inputs": [],
      "name": "pause",
      "outputs": [],
      "stateMutability": "nonpayable",
      "type": "function"
    },
    {
      "inputs": [],
      "name": "paused",
      "outputs": [
        {
          "internalType": "bool",
          "name": "",
          "type": "bool"
        }
      ],
      "stateMutability": "view",
      "type": "function"
    },
    {
      "inputs": [],
      "name": "proxiableUUID",
      "outputs": [
        {
          "internalType": "bytes32",
          "name": "",
          "type": "bytes32"
        }
      ],
      "stateMutability": "view",
      "type": "function"
    },
    {
      "inputs": [
        {
          "internalType": "address",
          "name": "staker",
          "type": "address"
        },
        {
          "internalType": "address",
          "name": "stakee",
          "type": "address"
        },
        {
          "internalType": "uint88",
          "name": "amountToRelease",
          "type": "uint88"
        },
        {
          "internalType": "uint16",
          "name": "slashRound",
          "type": "uint16"
        }
      ],
      "name": "release",
      "outputs": [],
      "stateMutability": "nonpayable",
      "type": "function"
    },
    {
      "inputs": [
        {
          "internalType": "bytes32",
          "name": "role",
          "type": "bytes32"
        },
        {
          "internalType": "address",
          "name": "callerConfirmation",
          "type": "address"
        }
      ],
      "name": "renounceRole",
      "outputs": [],
      "stateMutability": "nonpayable",
      "type": "function"
    },
    {
      "inputs": [
        {
          "internalType": "bytes32",
          "name": "role",
          "type": "bytes32"
        },
        {
          "internalType": "address",
          "name": "account",
          "type": "address"
        }
      ],
      "name": "revokeRole",
      "outputs": [],
      "stateMutability": "nonpayable",
      "type": "function"
    },
    {
      "inputs": [
        {
          "internalType": "uint88",
          "name": "amount",
          "type": "uint88"
        },
        {
          "internalType": "uint64",
          "name": "duration",
          "type": "uint64"
        }
      ],
      "name": "selfStake",
      "outputs": [],
      "stateMutability": "nonpayable",
      "type": "function"
    },
    {
      "inputs": [
        {
          "internalType": "address",
          "name": "",
          "type": "address"
        }
      ],
      "name": "selfStakes",
      "outputs": [
        {
          "internalType": "uint64",
          "name": "unlockTime",
          "type": "uint64"
        },
        {
          "internalType": "uint88",
          "name": "amount",
          "type": "uint88"
        },
        {
          "internalType": "uint88",
          "name": "slashedAmount",
          "type": "uint88"
        },
        {
          "internalType": "uint16",
          "name": "slashedInRound",
          "type": "uint16"
        }
      ],
      "stateMutability": "view",
      "type": "function"
    },
    {
      "inputs": [
        {
          "internalType": "address[]",
          "name": "selfStakers",
          "type": "address[]"
        },
        {
          "internalType": "address[]",
          "name": "communityStakers",
          "type": "address[]"
        },
        {
          "internalType": "address[]",
          "name": "communityStakees",
          "type": "address[]"
        },
        {
          "internalType": "uint88",
          "name": "percent",
          "type": "uint88"
        }
      ],
      "name": "slash",
      "outputs": [],
      "stateMutability": "nonpayable",
      "type": "function"
    },
    {
      "inputs": [
        {
          "internalType": "bytes4",
          "name": "interfaceId",
          "type": "bytes4"
        }
      ],
      "name": "supportsInterface",
      "outputs": [
        {
          "internalType": "bool",
          "name": "",
          "type": "bool"
        }
      ],
      "stateMutability": "view",
      "type": "function"
    },
    {
      "inputs": [],
      "name": "token",
      "outputs": [
        {
          "internalType": "contract IERC20",
          "name": "",
          "type": "address"
        }
      ],
      "stateMutability": "view",
      "type": "function"
    },
    {
      "inputs": [
        {
          "internalType": "uint16",
          "name": "",
          "type": "uint16"
        }
      ],
      "name": "totalSlashed",
      "outputs": [
        {
          "internalType": "uint88",
          "name": "",
          "type": "uint88"
        }
      ],
      "stateMutability": "view",
      "type": "function"
    },
    {
      "inputs": [],
      "name": "unpause",
      "outputs": [],
      "stateMutability": "nonpayable",
      "type": "function"
    },
    {
      "inputs": [
        {
          "internalType": "address",
          "name": "newImplementation",
          "type": "address"
        },
        {
          "internalType": "bytes",
          "name": "data",
          "type": "bytes"
        }
      ],
      "name": "upgradeToAndCall",
      "outputs": [],
      "stateMutability": "payable",
      "type": "function"
    },
    {
      "inputs": [
        {
          "internalType": "address",
          "name": "",
          "type": "address"
        }
      ],
      "name": "userTotalStaked",
      "outputs": [
        {
          "internalType": "uint88",
          "name": "",
          "type": "uint88"
        }
      ],
      "stateMutability": "view",
      "type": "function"
    },
    {
      "inputs": [
        {
          "internalType": "address",
          "name": "stakee",
          "type": "address"
        },
        {
          "internalType": "uint88",
          "name": "amount",
          "type": "uint88"
        }
      ],
      "name": "withdrawCommunityStake",
      "outputs": [],
      "stateMutability": "nonpayable",
      "type": "function"
    },
    {
      "inputs": [
        {
          "internalType": "uint88",
          "name": "amount",
          "type": "uint88"
        }
      ],
      "name": "withdrawSelfStake",
      "outputs": [],
      "stateMutability": "nonpayable",
      "type": "function"
    }
  ],
  "bytecode": "0x60a06040523060805234801561001457600080fd5b506080516133d761003e600039600081816127a3015281816127cc015261291501526133d76000f3fe6080604052600436106102035760003560e01c8063784f3b8611610118578063d1d098d2116100a0578063e67a97981161006f578063e67a979814610726578063e7a8cf4f14610746578063f032e64214610766578063f72f1e3814610786578063fc0c546a146107bc57600080fd5b8063d1d098d214610686578063d547741f146106c4578063dc7eae88146106e4578063e63ab1e91461070457600080fd5b8063a217fddf116100e7578063a217fddf146105b1578063ab761e32146105c6578063ac28af24146105f4578063ad3cb1cc14610628578063b07da9581461066657600080fd5b8063784f3b861461053c578063790fcf9f1461055c5780638456cb591461057c57806391d148541461059157600080fd5b8063414fa5111161019b5780635c975abb1161016a5780635c975abb146104105780636365950c1461043557806370d5ae05146104a1578063719de1ef146104d9578063733d48091461052757600080fd5b8063414fa511146103185780634f1ef286146103b45780635095af64146103c757806352d1902d146103fb57600080fd5b806336568abe116101d757806336568abe146102ad5780633d3d937d146102cd5780633f4ba83a146102e35780633ff8a1bb146102f857600080fd5b8062897a591461020857806301ffc9a71461022a578063248a9ca31461025f5780632f2ff15d1461028d575b600080fd5b34801561021457600080fd5b50610228610223366004612c4b565b6107dc565b005b34801561023657600080fd5b5061024a610245366004612c66565b6109c6565b60405190151581526020015b60405180910390f35b34801561026b57600080fd5b5061027f61027a366004612c90565b6109fd565b604051908152602001610256565b34801561029957600080fd5b506102286102a8366004612cc0565b610a1f565b3480156102b957600080fd5b506102286102c8366004612cc0565b610a41565b3480156102d957600080fd5b5061027f60045481565b3480156102ef57600080fd5b50610228610a79565b34801561030457600080fd5b50610228610313366004612d37565b610aa4565b34801561032457600080fd5b50610379610333366004612de1565b6001602052600090815260409020546001600160401b038116906001600160581b03600160401b8204811691600160981b81049091169061ffff600160f01b9091041684565b604080516001600160401b039590951685526001600160581b039384166020860152919092169083015261ffff166060820152608001610256565b6102286103c2366004612e12565b61127f565b3480156103d357600080fd5b5061027f7f12b42e8a160f6064dc959c6f251e3af0750ad213dbecf573b4710d67d6c28e3981565b34801561040757600080fd5b5061027f61129a565b34801561041c57600080fd5b506000805160206133828339815191525460ff1661024a565b34801561044157600080fd5b50610379610450366004612ed3565b60026020908152600092835260408084209091529082529020546001600160401b038116906001600160581b03600160401b8204811691600160981b81049091169061ffff600160f01b9091041684565b3480156104ad57600080fd5b506005546104c1906001600160a01b031681565b6040516001600160a01b039091168152602001610256565b3480156104e557600080fd5b5061050f6104f4366004612de1565b6000602081905290815260409020546001600160581b031681565b6040516001600160581b039091168152602001610256565b34801561053357600080fd5b506102286112b7565b34801561054857600080fd5b50610228610557366004612f14565b611459565b34801561056857600080fd5b50610228610577366004612f2f565b61158d565b34801561058857600080fd5b506102286117f4565b34801561059d57600080fd5b5061024a6105ac366004612cc0565b61181c565b3480156105bd57600080fd5b5061027f600081565b3480156105d257600080fd5b506003546105e19061ffff1681565b60405161ffff9091168152602001610256565b34801561060057600080fd5b5061027f7f88f3509f0e42391f2d94ebfb2a37cbd0782b1b8f73715330017f4663290b811781565b34801561063457600080fd5b50610659604051806040016040528060058152602001640352e302e360dc1b81525081565b6040516102569190612ff4565b34801561067257600080fd5b50610228610681366004613027565b611854565b34801561069257600080fd5b506003546106ac906201000090046001600160401b031681565b6040516001600160401b039091168152602001610256565b3480156106d057600080fd5b506102286106df366004612cc0565b611b61565b3480156106f057600080fd5b506102286106ff36600461307c565b611b7d565b34801561071057600080fd5b5061027f60008051602061334283398151915281565b34801561073257600080fd5b506102286107413660046130d0565b611fca565b34801561075257600080fd5b506102286107613660046130fa565b612136565b34801561077257600080fd5b50610228610781366004613116565b6123ae565b34801561079257600080fd5b5061050f6107a1366004613140565b6006602052600090815260409020546001600160581b031681565b3480156107c857600080fd5b506007546104c1906001600160a01b031681565b6107e46125a3565b3360009081526001602052604090208054426001600160401b0390911611156108205760405163856807e360e01b815260040160405180910390fd5b80546001600160581b03600160401b909104811690831611156108565760405163fd7850ad60e01b815260040160405180910390fd5b80548290829060089061087a908490600160401b90046001600160581b0316613171565b82546101009290920a6001600160581b03818102199093169183160217909155336000908152602081905260408120805486945090926108bc91859116613171565b92506101000a8154816001600160581b0302191690836001600160581b03160217905550336001600160a01b03167fdf840a32812a920a66fd3c346227e29e48aff7eaca366912af757fb28b7247e38360405161092891906001600160581b0391909116815260200190565b60405180910390a260075460405163a9059cbb60e01b81526001600160a01b039091169063a9059cbb906109629033908690600401613191565b6020604051808303816000875af1158015610981573d6000803e3d6000fd5b505050506040513d601f19601f820116820180604052508101906109a591906131b3565b6109c25760405163bfa871c560e01b815260040160405180910390fd5b5050565b60006001600160e01b03198216637965db0b60e01b14806109f757506301ffc9a760e01b6001600160e01b03198316145b92915050565b6000908152600080516020613362833981519152602052604090206001015490565b610a28826109fd565b610a31816125d6565b610a3b83836125e0565b50505050565b6001600160a01b0381163314610a6a5760405163334bd91960e11b815260040160405180910390fd5b610a74828261268c565b505050565b600080516020613342833981519152610a91816125d6565b610a99612708565b610aa1612738565b50565b7f12b42e8a160f6064dc959c6f251e3af0750ad213dbecf573b4710d67d6c28e39610ace816125d6565b610ad66125a3565b6064826001600160581b03161180610af557506001600160581b038216155b15610b1357604051632a235f3d60e01b815260040160405180910390fd5b8685848114610b355760405163a17efd0360e01b815260040160405180910390fd5b60005b82811015610eac5760008b8b83818110610b5457610b546131d5565b9050602002016020810190610b699190612de1565b6001600160a01b03811660009081526001602052604081205491925090606490610ba390600160401b90046001600160581b0316896131eb565b610bad9190613216565b6001600160a01b0383166000908152600160205260409020805491925090600160f01b900461ffff1615801590610bf657506003548154600160f01b900461ffff908116911614155b15610d1557600354610c0e9060019061ffff1661324a565b815461ffff918216600160f01b90910490911603610cff578054600354600160981b9091046001600160581b031690600690600090610c539060019061ffff1661324a565b61ffff168152602081019190915260400160009081208054909190610c829084906001600160581b0316613171565b82546101009290920a6001600160581b03818102199093169183160217909155825460035461ffff1660009081526006602052604081208054600160981b90930484169450929091610cd691859116613265565b92506101000a8154816001600160581b0302191690836001600160581b03160217905550610d15565b80546affffffffffffffffffffff60981b191681555b60035461ffff1660009081526006602052604081208054849290610d439084906001600160581b0316613265565b82546101009290920a6001600160581b0381810219909316918316021790915560035483546001600160f01b031661ffff909116600160f01b02178084558492508391601391610d9c918591600160981b900416613265565b92506101000a8154816001600160581b0302191690836001600160581b03160217905550818160000160088282829054906101000a90046001600160581b0316610de69190613171565b82546101009290920a6001600160581b038181021990931691831602179091556001600160a01b038516600090815260208190526040812080548694509092610e3191859116613171565b82546101009290920a6001600160581b0381810219909316918316021790915560035460408051928616835261ffff90911660208301526001600160a01b038616925082917fe4a628b7ff23a2937efd9d26e66add5b40dd3076a7987056bbf84ca5b1d09936910160405180910390a3505050600101610b38565b5060005b81811015611272576000898983818110610ecc57610ecc6131d5565b9050602002016020810190610ee19190612de1565b90506000888884818110610ef757610ef76131d5565b9050602002016020810190610f0c9190612de1565b6001600160a01b03838116600090815260026020908152604080832093851683529290529081205491925090606490610f5590600160401b90046001600160581b03168a6131eb565b610f5f9190613216565b6001600160a01b038481166000908152600260209081526040808320938716835292905220805491925090600160f01b900461ffff1615801590610fb557506003548154600160f01b900461ffff908116911614155b156110d457600354610fcd9060019061ffff1661324a565b815461ffff918216600160f01b909104909116036110be578054600354600160981b9091046001600160581b0316906006906000906110129060019061ffff1661324a565b61ffff1681526020810191909152604001600090812080549091906110419084906001600160581b0316613171565b82546101009290920a6001600160581b03818102199093169183160217909155825460035461ffff1660009081526006602052604081208054600160981b9093048416945092909161109591859116613265565b92506101000a8154816001600160581b0302191690836001600160581b031602179055506110d4565b80546affffffffffffffffffffff60981b191681555b60035461ffff16600090815260066020526040812080548492906111029084906001600160581b0316613265565b82546101009290920a6001600160581b0381810219909316918316021790915560035483546001600160f01b031661ffff909116600160f01b0217808455849250839160139161115b918591600160981b900416613265565b92506101000a8154816001600160581b0302191690836001600160581b03160217905550818160000160088282829054906101000a90046001600160581b03166111a59190613171565b82546101009290920a6001600160581b038181021990931691831602179091556001600160a01b0386166000908152602081905260408120805486945090926111f091859116613171565b82546101009290920a6001600160581b0381810219909316918316021790915560035460408051928616835261ffff90911660208301526001600160a01b0386811693508716917fe4a628b7ff23a2937efd9d26e66add5b40dd3076a7987056bbf84ca5b1d09936910160405180910390a3505060019092019150610eb09050565b5050505050505050505050565b611287612798565b6112908261283d565b6109c28282612848565b60006112a461290a565b5060008051602061332283398151915290565b6112bf6125a3565b600354600454620100009091046001600160401b0316906112e09042613285565b10156112ff576040516302f0e3e760e41b815260040160405180910390fd5b6003546000906113159060019061ffff1661324a565b61ffff808216600090815260066020526040812054600380549495506001600160581b039091169390926113499116613298565b91906101000a81548161ffff021916908361ffff160217905550426004819055506000816001600160581b031611156114125760075460055460405163a9059cbb60e01b81526001600160a01b039283169263a9059cbb926113b2929116908590600401613191565b6020604051808303816000875af11580156113d1573d6000803e3d6000fd5b505050506040513d601f19601f820116820180604052508101906113f591906131b3565b6114125760405163bfa871c560e01b815260040160405180910390fd5b6040516001600160581b038216815261ffff8316907f06367c1bab68f0c9b021d69341825bcbd2483b3f9f80fdedb196a8f33e21179b906020015b60405180910390a25050565b6114616125a3565b33600090815260016020526040812054600160401b90046001600160581b031690036114a057604051635e85ae7360e01b815260040160405180910390fd5b60006114ac42836132b9565b90506114bb42626ebe006132d9565b816001600160401b031610806114e657506114da426303bfc4006132d9565b816001600160401b0316115b8061150c5750336000908152600160205260409020546001600160401b03908116908216105b1561152a5760405163abf20e8f60e01b815260040160405180910390fd5b336000818152600160209081526040808320805467ffffffffffffffff19166001600160401b0387169081179091558151938452918301919091527f6600db42842224c3c3595c34733f34ac160702ac47d49fb5f7bdd28fa964b728910161144d565b7ff0c57e16840df040f15088dc2f81fe391c3923bec73e23a9662efc9c229c6a008054600160401b810460ff1615906001600160401b03166000811580156115d25750825b90506000826001600160401b031660011480156115ee5750303b155b9050811580156115fc575080155b1561161a5760405163f92ee8a960e01b815260040160405180910390fd5b845467ffffffffffffffff19166001178555831561164457845460ff60401b1916600160401b1785555b6001600160a01b038c1661166b576040516303988b8160e61b815260040160405180910390fd5b611673612953565b61167b61295b565b61168660008b6125e0565b5061169f6000805160206133428339815191528b6125e0565b5060005b88811015611704576116fb7f12b42e8a160f6064dc959c6f251e3af0750ad213dbecf573b4710d67d6c28e398b8b848181106116e1576116e16131d5565b90506020020160208101906116f69190612de1565b6125e0565b506001016116a3565b5060005b8681101561174f576117467f88f3509f0e42391f2d94ebfb2a37cbd0782b1b8f73715330017f4663290b81178989848181106116e1576116e16131d5565b50600101611708565b50600780546001600160a01b03808f166001600160a01b03199283161790925560058054928e1692909116919091179055600380546476a700000169ffffffffffffffffffff199091161790554260045583156117e657845460ff60401b19168555604051600181527fc7f505b2f371ae2175ee4913f4499e1f2633a7b5936321eed1cdaeb6115181d29060200160405180910390a15b505050505050505050505050565b60008051602061334283398151915261180c816125d6565b6118146125a3565b610aa161296b565b6000918252600080516020613362833981519152602090815260408084206001600160a01b0393909316845291905290205460ff1690565b61185c6125a3565b336001600160a01b0384160361188557604051635c39972d60e01b815260040160405180910390fd5b6001600160a01b0383166118ac576040516303988b8160e61b815260040160405180910390fd5b816001600160581b03166000036118d657604051635e85ae7360e01b815260040160405180910390fd5b60006118e242836132b9565b90506118f142626ebe006132d9565b816001600160401b0316108061191c5750611910426303bfc4006132d9565b816001600160401b0316115b8061195657503360009081526002602090815260408083206001600160a01b03881684529091529020546001600160401b03908116908216105b156119745760405163abf20e8f60e01b815260040160405180910390fd5b3360009081526002602090815260408083206001600160a01b0388168452909152902080548491906008906119ba908490600160401b90046001600160581b0316613265565b82546101009290920a6001600160581b038181021990931691831602179091553360008181526002602090815260408083206001600160a01b038b1684528252808320805467ffffffffffffffff19166001600160401b03891617905592825281905290812080548794509092611a3391859116613265565b92506101000a8154816001600160581b0302191690836001600160581b03160217905550836001600160a01b0316336001600160a01b03167fb65e180628043209b010b8f98fd0b36d27d6cf60b5764a937dc4fce9c8a215e38584604051611ab99291906001600160581b039290921682526001600160401b0316602082015260400190565b60405180910390a36007546040516323b872dd60e01b81523360048201523060248201526001600160581b03851660448201526001600160a01b03909116906323b872dd906064016020604051808303816000875af1158015611b20573d6000803e3d6000fd5b505050506040513d601f19601f82011682018060405250810190611b4491906131b3565b610a3b5760405163bfa871c560e01b815260040160405180910390fd5b611b6a826109fd565b611b73816125d6565b610a3b838361268c565b7f88f3509f0e42391f2d94ebfb2a37cbd0782b1b8f73715330017f4663290b8117611ba7816125d6565b611baf6125a3565b600354611bc29060019061ffff1661324a565b61ffff168261ffff161015611bea5760405163162af38760e01b815260040160405180910390fd5b6001600160a01b038416611c11576040516303988b8160e61b815260040160405180910390fd5b6001600160a01b038516611c38576040516303988b8160e61b815260040160405180910390fd5b836001600160a01b0316856001600160a01b031603611d9d576001600160a01b0385166000908152600160205260409020546001600160581b03600160981b90910481169084161115611c9e576040516356c8f43760e11b815260040160405180910390fd5b6001600160a01b03851660009081526001602052604090205461ffff838116600160f01b9092041614611ce457604051631eb5af2360e11b815260040160405180910390fd5b6001600160a01b03851660009081526001602052604090208054849190601390611d1f908490600160981b90046001600160581b0316613171565b82546101009290920a6001600160581b038181021990931691831602179091556001600160a01b038716600090815260016020526040902080548693509091600891611d74918591600160401b900416613265565b92506101000a8154816001600160581b0302191690836001600160581b03160217905550611f19565b6001600160a01b038086166000908152600260209081526040808320938816835292905220546001600160581b03600160981b90910481169084161115611df7576040516356c8f43760e11b815260040160405180910390fd5b6001600160a01b0385811660009081526002602090815260408083209388168352929052205461ffff838116600160f01b9092041614611e4a57604051631eb5af2360e11b815260040160405180910390fd5b6001600160a01b0385811660009081526002602090815260408083209388168352929052208054849190601390611e92908490600160981b90046001600160581b0316613171565b82546101009290920a6001600160581b038181021990931691831602179091556001600160a01b038781166000908152600260209081526040808320938a1683529290522080548693509091600891611ef4918591600160401b900416613265565b92506101000a8154816001600160581b0302191690836001600160581b031602179055505b61ffff821660009081526006602052604081208054859290611f459084906001600160581b0316613171565b92506101000a8154816001600160581b0302191690836001600160581b03160217905550836001600160a01b0316856001600160a01b03167f1859a1047624eb24b7401a705f696a8f216c1837a55690ea164288ab0102939785604051611fbb91906001600160581b0391909116815260200190565b60405180910390a35050505050565b611fd26125a3565b6001600160a01b038216611ff9576040516303988b8160e61b815260040160405180910390fd5b3360009081526002602090815260408083206001600160a01b0386168452909152812080549091600160401b9091046001600160581b0316900361205057604051635e85ae7360e01b815260040160405180910390fd5b600061205c42846132b9565b905061206b42626ebe006132d9565b816001600160401b03161080612096575061208a426303bfc4006132d9565b816001600160401b0316115b806120ae575081546001600160401b03908116908216105b156120cc5760405163abf20e8f60e01b815260040160405180910390fd5b815467ffffffffffffffff19166001600160401b0382169081178355604080516000815260208101929092526001600160a01b0386169133917fb65e180628043209b010b8f98fd0b36d27d6cf60b5764a937dc4fce9c8a215e3910160405180910390a350505050565b61213e6125a3565b816001600160581b031660000361216857604051635e85ae7360e01b815260040160405180910390fd5b600061217442836132b9565b905061218342626ebe006132d9565b816001600160401b031610806121ae57506121a2426303bfc4006132d9565b816001600160401b0316115b806121d45750336000908152600160205260409020546001600160401b03908116908216105b156121f25760405163abf20e8f60e01b815260040160405180910390fd5b3360009081526001602052604090208054849190600890612224908490600160401b90046001600160581b0316613265565b82546101009290920a6001600160581b03818102199093169183160217909155336000908152600160209081526040808320805467ffffffffffffffff19166001600160401b0388161790559082905281208054879450909261228991859116613265565b92506101000a8154816001600160581b0302191690836001600160581b03160217905550336001600160a01b03167f6600db42842224c3c3595c34733f34ac160702ac47d49fb5f7bdd28fa964b72884836040516123059291906001600160581b039290921682526001600160401b0316602082015260400190565b60405180910390a26007546040516323b872dd60e01b81523360048201523060248201526001600160581b03851660448201526001600160a01b03909116906323b872dd906064015b6020604051808303816000875af115801561236d573d6000803e3d6000fd5b505050506040513d601f19601f8201168201806040525081019061239191906131b3565b610a745760405163bfa871c560e01b815260040160405180910390fd5b6123b66125a3565b6001600160a01b0382166123dd576040516303988b8160e61b815260040160405180910390fd5b806001600160581b031660000361240757604051635e85ae7360e01b815260040160405180910390fd5b3360009081526002602090815260408083206001600160a01b038616845290915290208054426001600160401b0390911611156124575760405163856807e360e01b815260040160405180910390fd5b80546001600160581b03600160401b9091048116908316111561248d5760405163fd7850ad60e01b815260040160405180910390fd5b8054829082906008906124b1908490600160401b90046001600160581b0316613171565b82546101009290920a6001600160581b03818102199093169183160217909155336000908152602081905260408120805486945090926124f391859116613171565b92506101000a8154816001600160581b0302191690836001600160581b03160217905550826001600160a01b0316336001600160a01b03167f2caac2d31fe8eb8221533ae01b6f8a86f77673624d0a37836993b272f3846a0e8460405161256991906001600160581b0391909116815260200190565b60405180910390a360075460405163a9059cbb60e01b81526001600160a01b039091169063a9059cbb9061234e9033908690600401613191565b6000805160206133828339815191525460ff16156125d45760405163d93c066560e01b815260040160405180910390fd5b565b610aa181336129b4565b60006000805160206133628339815191526125fb848461181c565b61267b576000848152602082815260408083206001600160a01b03871684529091529020805460ff191660011790556126313390565b6001600160a01b0316836001600160a01b0316857f2f8788117e7eff1d82e926ec794901d17c78024a50270940304540a733656f0d60405160405180910390a460019150506109f7565b60009150506109f7565b5092915050565b60006000805160206133628339815191526126a7848461181c565b1561267b576000848152602082815260408083206001600160a01b0387168085529252808320805460ff1916905551339287917ff6391f5c32d9c69d2a47ea670b442974b53935d1edc7fd64eb21e047a839171b9190a460019150506109f7565b6000805160206133828339815191525460ff166125d457604051638dfc202b60e01b815260040160405180910390fd5b612740612708565b600080516020613382833981519152805460ff191681557f5db9ee0a495bf2e6ff9c91a7834c1ba4fdd244a5e8aa4e537bd38aeae4b073aa335b6040516001600160a01b03909116815260200160405180910390a150565b306001600160a01b037f000000000000000000000000000000000000000000000000000000000000000016148061281f57507f00000000000000000000000000000000000000000000000000000000000000006001600160a01b0316612813600080516020613322833981519152546001600160a01b031690565b6001600160a01b031614155b156125d45760405163703e46dd60e11b815260040160405180910390fd5b60006109c2816125d6565b816001600160a01b03166352d1902d6040518163ffffffff1660e01b8152600401602060405180830381865afa9250505080156128a2575060408051601f3d908101601f1916820190925261289f918101906132ec565b60015b6128cf57604051634c9c8ce360e01b81526001600160a01b03831660048201526024015b60405180910390fd5b600080516020613322833981519152811461290057604051632a87526960e21b8152600481018290526024016128c6565b610a7483836129ed565b306001600160a01b037f000000000000000000000000000000000000000000000000000000000000000016146125d45760405163703e46dd60e11b815260040160405180910390fd5b6125d4612a43565b612963612a43565b6125d4612a8c565b6129736125a3565b600080516020613382833981519152805460ff191660011781557f62e78cea01bee320cd4e420270b5ea74000d11b0c9f74754ebdbfc544b05a2583361277a565b6129be828261181c565b6109c25760405163e2517d3f60e01b81526001600160a01b0382166004820152602481018390526044016128c6565b6129f682612aad565b6040516001600160a01b038316907fbc7cd75a20ee27fd9adebab32041f755214dbc6bffa90cc0225b39da2e5c2d3b90600090a2805115612a3b57610a748282612b12565b6109c2612b88565b7ff0c57e16840df040f15088dc2f81fe391c3923bec73e23a9662efc9c229c6a0054600160401b900460ff166125d457604051631afcd79f60e31b815260040160405180910390fd5b612a94612a43565b600080516020613382833981519152805460ff19169055565b806001600160a01b03163b600003612ae357604051634c9c8ce360e01b81526001600160a01b03821660048201526024016128c6565b60008051602061332283398151915280546001600160a01b0319166001600160a01b0392909216919091179055565b6060600080846001600160a01b031684604051612b2f9190613305565b600060405180830381855af49150503d8060008114612b6a576040519150601f19603f3d011682016040523d82523d6000602084013e612b6f565b606091505b5091509150612b7f858383612ba7565b95945050505050565b34156125d45760405163b398979f60e01b815260040160405180910390fd5b606082612bbc57612bb782612c06565b612bff565b8151158015612bd357506001600160a01b0384163b155b15612bfc57604051639996b31560e01b81526001600160a01b03851660048201526024016128c6565b50805b9392505050565b805115612c165780518082602001fd5b604051630a12f52160e11b815260040160405180910390fd5b80356001600160581b0381168114612c4657600080fd5b919050565b600060208284031215612c5d57600080fd5b612bff82612c2f565b600060208284031215612c7857600080fd5b81356001600160e01b031981168114612bff57600080fd5b600060208284031215612ca257600080fd5b5035919050565b80356001600160a01b0381168114612c4657600080fd5b60008060408385031215612cd357600080fd5b82359150612ce360208401612ca9565b90509250929050565b60008083601f840112612cfe57600080fd5b5081356001600160401b03811115612d1557600080fd5b6020830191508360208260051b8501011115612d3057600080fd5b9250929050565b60008060008060008060006080888a031215612d5257600080fd5b87356001600160401b0380821115612d6957600080fd5b612d758b838c01612cec565b909950975060208a0135915080821115612d8e57600080fd5b612d9a8b838c01612cec565b909750955060408a0135915080821115612db357600080fd5b50612dc08a828b01612cec565b9094509250612dd3905060608901612c2f565b905092959891949750929550565b600060208284031215612df357600080fd5b612bff82612ca9565b634e487b7160e01b600052604160045260246000fd5b60008060408385031215612e2557600080fd5b612e2e83612ca9565b915060208301356001600160401b0380821115612e4a57600080fd5b818501915085601f830112612e5e57600080fd5b813581811115612e7057612e70612dfc565b604051601f8201601f19908116603f01168101908382118183101715612e9857612e98612dfc565b81604052828152886020848701011115612eb157600080fd5b8260208601602083013760006020848301015280955050505050509250929050565b60008060408385031215612ee657600080fd5b612eef83612ca9565b9150612ce360208401612ca9565b80356001600160401b0381168114612c4657600080fd5b600060208284031215612f2657600080fd5b612bff82612efd565b600080600080600080600060a0888a031215612f4a57600080fd5b612f5388612ca9565b9650612f6160208901612ca9565b9550612f6f60408901612ca9565b945060608801356001600160401b0380821115612f8b57600080fd5b612f978b838c01612cec565b909650945060808a0135915080821115612fb057600080fd5b50612fbd8a828b01612cec565b989b979a50959850939692959293505050565b60005b83811015612feb578181015183820152602001612fd3565b50506000910152565b6020815260008251806020840152613013816040850160208701612fd0565b601f01601f19169190910160400192915050565b60008060006060848603121561303c57600080fd5b61304584612ca9565b925061305360208501612c2f565b915061306160408501612efd565b90509250925092565b803561ffff81168114612c4657600080fd5b6000806000806080858703121561309257600080fd5b61309b85612ca9565b93506130a960208601612ca9565b92506130b760408601612c2f565b91506130c56060860161306a565b905092959194509250565b600080604083850312156130e357600080fd5b6130ec83612ca9565b9150612ce360208401612efd565b6000806040838503121561310d57600080fd5b6130ec83612c2f565b6000806040838503121561312957600080fd5b61313283612ca9565b9150612ce360208401612c2f565b60006020828403121561315257600080fd5b612bff8261306a565b634e487b7160e01b600052601160045260246000fd5b6001600160581b038281168282160390808211156126855761268561315b565b6001600160a01b039290921682526001600160581b0316602082015260400190565b6000602082840312156131c557600080fd5b81518015158114612bff57600080fd5b634e487b7160e01b600052603260045260246000fd5b6001600160581b0381811683821602808216919082811461320e5761320e61315b565b505092915050565b60006001600160581b038084168061323e57634e487b7160e01b600052601260045260246000fd5b92169190910492915050565b61ffff8281168282160390808211156126855761268561315b565b6001600160581b038181168382160190808211156126855761268561315b565b818103818111156109f7576109f761315b565b600061ffff8083168181036132af576132af61315b565b6001019392505050565b6001600160401b038181168382160190808211156126855761268561315b565b808201808211156109f7576109f761315b565b6000602082840312156132fe57600080fd5b5051919050565b60008251613317818460208701612fd0565b919091019291505056fe360894a13ba1a3210667c828492db98dca3e2076cc3735a920a3ca505d382bbc65d7a28e3265b37a6474929f336521b332c1681b933f6cb9f3376673440d862a02dd7bc7dec4dceedda775e58dd541e08a116c6c53815c0bd028192f7b626800cd5ed15c6e187e77e9aee88184c21f4f2182ab5827cb3b7e07fbedcd63f03300a26469706673582212201af4200d41cfaa4f8c6a19d9dc561bd4494c7a93f4f1a55d26d824b70e6984aa64736f6c63430008170033",
  "linkReferences": {},
  "deployedLinkReferences": {}
}